:0400000080312F28F4
:10000600553480312000111C09280A282E28181082
:10001600FD302F02E83003192E0203181328142886
:1000260018280130AE070030AF3DFD303102E83010
:10003600031930020318202821282A283808031D0E
:1000460025282A280130B0070030B13D2A288D31F5
:10005600902580312E28090088018D31C52D003468
:1000660019340034003400343F3403340A34003485
:10007600003400341E34003401340A340034C834E9
:10008600003464340034C834003464340034033437
:100096000134073405340034013458340234200066
:1000A600D3003230F0000030F1005208F301F307BC
:1000B6005108F201F2078F311427803171082000B0
:1000C600D501D5077008D401D407FD305502E930B3
:1000D60003195402031C702871287628E830D400CE
:1000E600FD30D5007628AE01AF019D2883317E23F1
:1000F6008031003A0319802881289D282000361077
:100106008F31A12780310330FD007D08F0002000EB
:1001160053088D31F4258031423E8600870101085F
:100126000339023A0319982899289D28A928A9284D
:100136009D289D28200055082F02031DA428540839
:100146002E02031CA728A8287928A92820005508CC
:100156002F02031DB02854082E02031CB328B4280E
:10016600B8280130BB28BB28BB280030BB28BB28D9
:1001760008003230F0000030F1007908F301F3078F
:100186007808F201F2078F31142780317108FB01DC
:10019600FB077008FA01FA07FD307B02E930031904
:1001A6007A02031CD728D828DD28E830FA00FD306B
:1001B600FB00DD282000AE01AF01E228E2287B0823
:1001C6002F02031DE8287A082E02031CEB28EC28D0
:1001D600E228ED28080021001B08F000F1011C08A8
:1001E600F200F3017208F300F201700872072000B2
:1001F600AC007108733DAD00080081318207022909
:100206008E31622E8E31852E8E31A82E8E31CB2EDA
:100216000330F4007408F000200032088D31F42514
:100226008131423EF5007508F800200032080907C2
:10023600243E86008701403FF600413FF7004830E4
:10024600F4007408B400692A7808013E8600870124
:1002560001081F39F400F40301087406E039740636
:10026600810001081F390038031D3A293B296029FE
:100276007808860087010108FC39013881002000D2
:1002860032080907283E86008701403FF400413FB7
:10029600F50032080907203E860087017408C03F32
:1002A6007508C13F7808023E8600870101082100D3
:1002B6002206E0392206810063292000B610632950
:1002C60000307A2A7A2A20003208F4000130F43508
:1002D600FF3E031D6A297435113EA03E8600870144
:1002E6003208F5000130F535FF3E031D76297535D8
:1002F600123EA03E8400850177080002031D852971
:1003060076080102031888298929DD293408023E66
:100316008600870101083206031D92299329D129F7
:10032600340886008701403FF400413FF500003065
:100336007502C93003197402031CA229A329D12905
:100346007808023E8600870101081F390038031D20
:10035600AD29AE29C2297808023E86008701010828
:1003660021002406E03924068100780886008701EA
:100376000108FC390238810020003615EA29780880
:10038600023E8600870101081F39F400F4030108C4
:100396007406E03974068100EA29EA297808023EE3
:1003A60086008701010821002206E0392206810025
:1003B600EA29EA297808023E860087010108210019
:1003C6002206E0392206810001307A2A7A2A003094
:1003D6007A2A7A2A20003208F4000130F435FF3EEA
:1003E600031DF1297435133EA03E860087013208AD
:1003F600F5000130F535FF3E031DFD297535143E28
:10040600A03E8400850100087702031D0C2A01081E
:100416007602031C0F2A102A2B2A3408023E860075
:10042600870101083206031D192A1A2A2B2A3408C5
:1004360086008701403FF400413FF5000030750219
:10044600C830031974020318292A2A2A592A2B2A82
:100456007808023E8600870101081F390038031D0F
:10046600352A362A4A2A7808023E8600870101087C
:1004760021002206E03922068100780886008701DD
:100486000108FC390138810020003615642A7808F5
:10049600023E8600870101081F39F400F4030108B3
:1004A6007406E03974068100642A642A7808023EDC
:1004B60086008701010821002406E0392406810010
:1004C600642A00307A2A7A2A782A782A78088600D6
:1004D600870101080339003A03192729013A03194C
:1004E6006629033A0319ED29782A00307A2A08008A
:1004F600200032080907283E86008701403FFB009E
:10050600413FFC000330F4007408F00032088D31DE
:10051600F4258231423E86008701011D932A942AE2
:10052600EB2A0330F4007408F000200032088D3105
:10053600F4258231423E8600870101088739083852
:100546008100200032080907203E860087017B09CA
:10055600F4007C09F500F40A0319F50A403F740714
:10056600F600413F753DF7003208F8000130F835D6
:10057600FF3E031DBA2A7835133EA03E860087014A
:100586003208F9000130F935FF3E031DC62A7935D8
:10059600143EA03E840085017708803AFA000008E0
:1005A600803A7A02031DD92A010876020318DC2A4A
:1005B600DD2AEB2A0330F4007408F000200032082C
:1005C6008D31F4258231423E860087010111EB2AE6
:1005D6000330F4007408F000200032088D31F42551
:1005E6008231423E86008701010CF500F50C750C40
:1005F6000F39F500F503F50DF50DF50D0108750636
:10060600873975068100010CF600F60C760C0F3959
:100616000038031D0F2B102B7D2B21002808F4001A
:100626000330F5007508F000200032088D31F425FE
:100636008231423E86008701F40DF40DF40D010867
:10064600740687397406810021002708013A031DC4
:100656002D2B2E2B472B200032080907203E860023
:1006660087017B08810741317C08813D7F31320853
:100676000907203E860087010130413181367F31EE
:10068600810C890B402B7D2B200032080907203E68
:1006960086008701403FF400413FF5002100270A0C
:1006A600562BF536F40C890B542B2000320809071B
:1006B600203E860087017408810241317508813B1E
:1006C6007F317C08F5007B08F4002100270A6D2B9A
:1006D600F536F40C890B6B2B200032080907203EF7
:1006E600860087017408810741317508813D7F3195
:1006F6007D2B7D2B08000000000000002000B61AAC
:10070600852B862B892B0030792C792CB611320853
:100716004A3E80310A008331813100218331200035
:10072600361A962B972BA02B3508031D9B2BA02B37
:10073600873154278331A02BA02B8D31B0258331EF
:100746008031EE208331200032084C3E80310A0091
:1007560083318131002183312000361AB32BB42B2B
:10076600BD2B3508031DB82BBD2B8E314326833197
:10077600BD2BBD2B8D31B02583318E31EE268331D5
:100786002000B619C72BCA2B20003616CC2B20000A
:100796003612361ACF2BD02B892BD12B3208CB0011
:1007A6000130CB35FF3E031DD42B4B35393ECC00F3
:1007B6004C08B5000130CB004B08B2073208023AAC
:1007C600031DE62BE72B4E2CB2010130C102031D9F
:1007D600ED2BEE2B4E2C21002C082000CB004B08D5
:1007E600C1008731542783318E3143268331FB2B59
:1007F60020003208CB000130CB35FF3E031DFF2B16
:100806004B35393ECC004C08B500FF30CB00FF30ED
:10081600CC000F30CD00350886008701403FCE0062
:10082600413FCF00423FD0004E08CB054F08CC05D4
:100836005008CD0521002E0A2000242CCD36CC0CE4
:10084600CB0C890B212C32080907283E860087012C
:100856004B08C03F4C08C13F350886008701003071
:1008660081054131003081054131F03081057E310D
:100876000130CB004B08B2073208023A031D442C64
:10088600452CFB2B462C8D317925833120003614DF
:100896004E2C4E2C4E2C5C1C512C522C592C5C0888
:1008A6008936B43ACB004B08DC005E2C5C088936EE
:1008B600CB004B08DC002100260820005C05CB009D
:1008C6004B08FA00FA08031D692C6A2C6C2C752C4F
:1008D600752C0130FA02FA08031D722C732C6C2C4D
:1008E600752C752C200036080139792C0800FC007F
:1008F6000330F4007408F0007C088D31F42584314F
:10090600483EF50075082000B4003408023E860013
:10091600870181013408860087010030C03F00301E
:10092600C13FF801F90103147C0D4E3E80310A00E7
:100936008431F4007408FA00D92C7A080907243E99
:1009460086008701403FF400413FF500200034084F
:1009560086008701403FF600413FF70075087702A1
:10096600031DB72C740876020318BA2CBB2CD42CA2
:100976007A080907243E86008701403FF400413F7C
:10098600F5003408860087017408C03F7508C13F2A
:100996007A08F4003408023E860087017408810054
:1009A600D42CFF30F4007408FA07D92C7C08090708
:1009B6004E3E80310A008431F4007A08F500F601D3
:1009C600F51BF6037608803AF70080307702031DA0
:1009D600EE2C740875020318F12CF22CA02CF32CC3
:1009E60003147C0D4E3E80310A008431F4007408F5
:1009F600FB00312D7B08F400F501F41BF503200004
:100A06003408023E8600870101087406750403193E
:100A16000D2D0E2D2C2D7B080907243E86008701FF
:100A2600403FF400413FF50075087902031D1D2D76
:100A3600740878020318202D212D2C2D7B08090718
:100A4600243E86008701403FF800413FF9002C2DE7
:100A56002C2DFF30F4007408FB07312D7C080907A4
:100A66004E3E80310A008531F4007B08F500F60120
:100A7600F51BF6037608803AF70080307702031DEF
:100A8600462D740875020318492D4A2DFD2C4B2D51
:100A960020003408860087017809F4007909F500FA
:100AA600F40A0319F50A403F7407F600413F753D05
:100AB600F7003408860087017608C03F7708C13FF3
:100AC60008002000D7000330D6005608F00057086B
:100AD6008D31F4258531423E8600870101080339B0
:100AE600023A031D772D782D0B2E200057088E31E4
:100AF60026268531E8302000D1000330D200570881
:100B0600803152208531003A03198A2D8B2DFC2D18
:100B160022008C10F430F8000130F9008031BC203E
:100B26008531200057088D3183258531C830F8007E
:100B36000030F9008031BC20853122008C14200061
:100B4600B001B101B8010314B80D57088F315A2707
:100B56008531AD2D0130200031025F30031930029E
:100B6600031CB62DB72DBC2D22008C102000B80119
:100B7600EA2D83317E238531003A0319C32DC42D16
:100B8600AD2D200036108F31A12785312000420877
:100B96000339023A031DD02DD12DD82D22008C10F9
:100BA60000308F315A278531EA2D20004508033958
:100BB600023A031DDF2DE02DAD2D22008C100130F1
:100BC6008F315A278531EA2DAD2DAD2DAD2DF4305F
:100BD600F8000130F9008031BC20853101308D31BB
:100BE6008325853122008C1220008C1221008C1660
:100BF600032E22008C1220008C1221008C16032E4C
:100C0600E830F8000330F9008031BC208531122E1F
:100C160022008C1220008C1221008C16122E080045
:100C26008D31DC2586318631B82686318D31A02579
:100C3600863100308E3126268631F4302000DA00E7
:100C46000130DB0000305B02333003195A0203180F
:100C56002D2E2E2E302E692E692ED801D901003068
:100C66005902033003195802031C3A2E3B2E3D2E1F
:100C76005B2E5B2E21008C12203022008C06200079
:100C86005B08F901F9075A08F801F8078031BC201A
:100C9600863101302000D8070030D93D0030590296
:100CA600033003195802031C592E5A2E3D2E5B2E73
:100CB6003230DA020030DB3B00305B02333003199E
:100CC6005A020318672E682E302E692EDA01DB01D0
:100CD60000305B02143003195A02031C732E742E63
:100CE600762E902E902E21008C12203022008C061B
:100CF6006430F8000030F9008031BC2086310130C4
:100D06002000DA070030DB3D00305B0214300319A7
:100D16005A02031C8F2E902E762E22008C12200053
:100D26008C1221008C16E830F8000330F90080316F
:100D3600BC2086319E2E83317E238631003A0319EC
:100D4600A52EA62E9E2E200036108F31A127863185
:100D56000030853164258631013085316425863140
:100D66009E2E9E2E9E2E80312F288E310D26863168
:100D7600F8010314F80DF81FC12EC22EC42E452FFC
:100D8600452F7808F4000130F435FF3E031DC72EC9
:100D96007435393EF5007508F7007708023E86007F
:100DA60087010F3081054131003081057708023E09
:100DB60086008701F03081044131473081040330D9
:100DC600F4007408F00078088D31F4258631423E2F
:100DD60086008701FC3081050330F4007408F000BA
:100DE60078088D31F4258631F50042307507F60016
:100DF6007608013E860087010108E0391E38810029
:100E060021002808F4000330F5007508F000780882
:100E16008D31F4258631423E86008701F40DF40DAE
:100E2600F40D010874068739740681000330F40056
:100E36007408F00078088D31F4258631F5004230CB
:100E46007507F6007608023E86008701E0308105C8
:100E560078080907203E860087010030C03F003031
:100E6600C13F78080907243E860087010030C03F4D
:100E76000030C13FFF30F4007408F807F81F442F14
:100E8600452FC42E20003610B6108D3179258631B7
:100E960021001E088F3920389E009E172000B616A6
:100EA600080020003508023E86008701403FF0001A
:100EB600413FF1000430F136F00C890B5E2F7008CB
:100EC600F4007108F50021002F08F0007008F60004
:100ED60076087407F00075080318750AF1002000FB
:100EE6002D087102031D792F2C08700203187C2F20
:100EF6007D2F852F7608F000F1017008F407710840
:100F0600F53DC22F7608F000F10175087102031D48
:100F16008E2F740870020318912F922FBA2F76081D
:100F2600F000F101F009F109F00A0319F10A740859
:100F36007007F2007508713DF30073082D02031D5A
:100F4600A62F72082C020318A92FAA2FB22F7608F3
:100F5600F000F1017008F4027108F53BC22F2D086C
:100F6600F501F5072C08F401F407C22FC22F2D084E
:100F7600F501F5072C08F401F407C22FC22F350836
:100F8600023E860087010F30810541310030810520
:100F96007508F1007408F0000430F035F10D890B86
:100FA600D02F3508023E8600870170088104413142
:100FB600710881040800F10117307102031CE42F47
:100FC600E52FE72FFF2FFF2F7108333E80310A00F0
:100FD6008731F0007108023EA03E86008701700846
:100FE60081000130F0007008F10717307102031C10
:0A0FF600FD2FFE2FE72FFF2F08004C
:101AE600640080010131890B742D00342000B5019A
:101AF600B20121002C08F00070082000C100080087
:101B0600F000F008031D882D892D8C2D22000C1461
:101B16008F2D22000C108F2D08008B16210011141A
:101B2600200011103C309700B030960099013130FA
:101B36009800C0308B00111008008B16210011147C
:101B4600200011103C309700B030960099013130DA
:101B56009800C0308B0011100800FF30F0007008AC
:101B66002000B300B62D21009D1CBA2DBB2DC42D1F
:101B760001302000B302031DC12DC22DB62DC42D88
:101B8600C42D080020308400003085002B308D31B4
:101B960073258D31A03084000030850019308D31D9
:101BA60073258D31803103208D31DC002000863194
:101BB600132EF0302100990023008C0122008C01A5
:101BC60021008C0124008C0122008C1220008C1232
:101BD60021008C1622008C100C10803021009500FC
:101BE6000800F300F201F72D731CFA2DFB2D002ED1
:101BF6007008F1007108F207002E0310F00D0310B3
:101C0600F30CF308031D082E092EF72D0A2E720871
:101C16000C2E08000B30F3006230F200F20B112E8E
:101C2600F30B112E640021002108BD3A03191C2E66
:101C36001D2E252EBD30F2007208A1008731DE2749
:101C46008E31252E0800F0003A2E21008C1222003B
:101C56008C12422E21008C1222008C16422E22005B
:101C66008C1220008C1221008C16422E422E7008F7
:101C7600003A0319282E013A03192D2E322E080098
:101C860020003508023E86008701403FF000413FB4
:101C9600F1000430F136F00C890B4D2E7008F2007D
:101CA6007108F300F4013508860087017208810780
:101CB60041317308813D41317408813D080022009D
:101CC6000C15210009309D000C308600013087007C
:101CD6008C3084000030850020000530B300B30B43
:101CE600722E21000D3000169D0020000530B30035
:101CF600B30B7B2E21009D1400000000000001168E
:101D06000012080022000C1621000D309D000C3038
:101D16008600013087008C3084000030850020006A
:101D26000530B300B30B952E2100093000159D0038
:101D360020000530B300B30B9E2E21009D14000039
:101D46000000000001150011080022000C112100FE
:101D560009309D000C308600013087008C308400ED
:101D66000030850020000530B300B30BB82E2100EB
:101D76000D3000169D0020000530B300B30BC12EB8
:101D860021009D140000000000000112001208004E
:101D960022000C1221000D309D000C30860001300F
:101DA60087008C3084000030850020000530B300A9
:101DB600B30BDB2E2100093000159D0020000530F5
:101DC600B300B30BE42E21009D14000000000000B8
:101DD60001110011080020002C09F0002D09F10066
:101DE600F00A0319F10A21001B08F200F3011C088E
:101DF600F400F5017408F500F40100307404F600EF
:101E060004307504F70072087607F8007308773D0A
:101E1600F900700878072000AC007108793DAD0024
:101E26000800F501F6017108700403191B2F1C2F19
:101E3600522FF7010314F70D2A2F0130F035F10D5B
:101E4600890B212F0130F4007408F7072A2FF11FA0
:101E56002D2F2E2F202F302F302F0130F535F60D58
:101E6600890B312F71087302031D3B2F7008720214
:101E7600031C3E2F3F2F452F7008F2027108F33BDB
:101E86007514452F0130F136F00C890B462F0130C1
:101E9600F702031D4F2F502F302F522F522F760847
:101EA600F101F1077508F001F007592F0800FD0050
:101EB6002000AE01AF015F2F5030840080308500D6
:101EC600003F2000D100013FD2002F085202031D1F
:101ED6006E2F2E0851020318712F722F742F992F0F
:101EE600992F83317E238F31003A03197B2F7C2F64
:101EF6005F2F200036108F31A1278F31033020004D
:101F0600D1005108F0007D088D31F4258F31423E15
:101F16008600870101080339023A0319932F942F8B
:101F26005F2F992F992F5F2F5F2F5F2FF430F800C7
:101F36000130F9008031BC208F3108002000B61234
:101F4600B6143611B201A72F32080907283E8600BB
:101F5600870132080907203E84008501003FCB0037
:101F6600013FCC00CB09CC09CB0A0319CC0A403F70
:101F76004B07CD00413F4C3DCE00CE1FC32FC42F93
:101F8600C72FCD01CE01C72F32080907243E860090
:101F960087014D08C03F4E08C13F0130CB004B08BA
:101FA600B2073208023A031DD92FDA2FA72FDB2FEB
:101FB600003084317A248F312000B201E22F813142
:101FC6000B218F31003A0319E92FEA2FEE2F8231C8
:101FD6007B228F31EE2F01302000CB004B08B20759
:101FE6003208023A031DF82FF92FE22FFA2F8D310E
:0A1FF60079258F312000B61608008F
:020000040001F9
:04000E00A4C9FFD9A9
:00000001FF
